{
    "contractName": "Ballot",
    "abi": [
        {
            "inputs": [
                {
                    "internalType": "bytes32[]",
                    "name": "proposalNames",
                    "type": "bytes32[]"
                }
            ],
            "stateMutability": "nonpayable",
            "type": "constructor"
        },
        {
            "inputs": [],
            "name": "chairperson",
            "outputs": [
                {
                    "internalType": "address",
                    "name": "",
                    "type": "address"
                }
            ],
            "stateMutability": "view",
            "type": "function"
        },
        {
            "inputs": [
                {
                    "internalType": "address",
                    "name": "to",
                    "type": "address"
                }
            ],
            "name": "delegate",
            "outputs": [],
            "stateMutability": "nonpayable",
            "type": "function"
        },
        {
            "inputs": [
                {
                    "internalType": "address",
                    "name": "voter",
                    "type": "address"
                }
            ],
            "name": "giveRightToVote",
            "outputs": [],
            "stateMutability": "nonpayable",
            "type": "function"
        },
        {
            "inputs": [
                {
                    "internalType": "uint256",
                    "name": "i",
                    "type": "uint256"
                }
            ],
            "name": "proposalNameByPos",
            "outputs": [
                {
                    "internalType": "bytes32",
                    "name": "proposalsName_",
                    "type": "bytes32"
                }
            ],
            "stateMutability": "view",
            "type": "function"
        },
        {
            "inputs": [
                {
                    "internalType": "uint256",
                    "name": "i",
                    "type": "uint256"
                }
            ],
            "name": "proposalVotesByPos",
            "outputs": [
                {
                    "internalType": "uint256",
                    "name": "totalVotos_",
                    "type": "uint256"
                }
            ],
            "stateMutability": "view",
            "type": "function"
        },
        {
            "inputs": [
                {
                    "internalType": "uint256",
                    "name": "",
                    "type": "uint256"
                }
            ],
            "name": "proposals",
            "outputs": [
                {
                    "internalType": "bytes32",
                    "name": "name",
                    "type": "bytes32"
                },
                {
                    "internalType": "uint256",
                    "name": "voteCount",
                    "type": "uint256"
                }
            ],
            "stateMutability": "view",
            "type": "function"
        },
        {
            "inputs": [],
            "name": "totalProposals",
            "outputs": [
                {
                    "internalType": "uint256",
                    "name": "totalProposals_",
                    "type": "uint256"
                }
            ],
            "stateMutability": "view",
            "type": "function"
        },
        {
            "inputs": [
                {
                    "internalType": "uint256",
                    "name": "proposal",
                    "type": "uint256"
                }
            ],
            "name": "vote",
            "outputs": [],
            "stateMutability": "nonpayable",
            "type": "function"
        },
        {
            "inputs": [
                {
                    "internalType": "address",
                    "name": "",
                    "type": "address"
                }
            ],
            "name": "voters",
            "outputs": [
                {
                    "internalType": "uint256",
                    "name": "weight",
                    "type": "uint256"
                },
                {
                    "internalType": "bool",
                    "name": "voted",
                    "type": "bool"
                },
                {
                    "internalType": "address",
                    "name": "delegate",
                    "type": "address"
                },
                {
                    "internalType": "uint256",
                    "name": "vote",
                    "type": "uint256"
                }
            ],
            "stateMutability": "view",
            "type": "function"
        }
    ],
    "bytecode": "608060405234801561001057600080fd5b506040516108603803806108608339818101604052602081101561003357600080fd5b810190808051604051939291908464010000000082111561005357600080fd5b90830190602082018581111561006857600080fd5b825186602082028301116401000000008211171561008557600080fd5b82525081516020918201928201910280838360005b838110156100b257818101518382015260200161009a565b50505050919091016040908152600080546001600160a01b03191633178082556001600160a01b03168152600160208190529181209190915593505050505b8151811015610153576002604051806040016040528084848151811061011357fe5b60209081029190910181015182526000918101829052835460018181018655948352918190208351600290930201918255919091015190820155016100f1565b50506106fc806101646000396000f3fe608060405234801561001057600080fd5b50600436106100935760003560e01c80639e7b8d61116100665780639e7b8d6114610137578063a3ec138d1461015d578063a78d80fc146101b1578063ba8b1bf3146101cb578063d8fe0d9c146101e857610093565b80630121b93f14610098578063013cf08b146100b75780632e4176cf146100ed5780635c19a95c14610111575b600080fd5b6100b5600480360360208110156100ae57600080fd5b5035610205565b005b6100d4600480360360208110156100cd57600080fd5b50356102f0565b6040805192835260208301919091528051918290030190f35b6100f561031b565b604080516001600160a01b039092168252519081900360200190f35b6100b56004803603602081101561012757600080fd5b50356001600160a01b031661032a565b6100b56004803603602081101561014d57600080fd5b50356001600160a01b0316610519565b6101836004803603602081101561017357600080fd5b50356001600160a01b0316610614565b6040805194855292151560208501526001600160a01b03909116838301526060830152519081900360800190f35b6101b9610648565b60408051918252519081900360200190f35b6101b9600480360360208110156101e157600080fd5b503561064e565b6101b9600480360360208110156101fe57600080fd5b5035610676565b336000908152600160205260409020805461025e576040805162461bcd60e51b8152602060048201526014602482015273486173206e6f20726967687420746f20766f746560601b604482015290519081900360640190fd5b600181015460ff16156102a9576040805162461bcd60e51b815260206004820152600e60248201526d20b63932b0b23c903b37ba32b21760911b604482015290519081900360640190fd5b6001818101805460ff19169091179055600280820183905581548154909190849081106102d257fe5b60009182526020909120600160029092020101805490910190555050565b600281815481106102fd57fe5b60009182526020909120600290910201805460019091015490915082565b6000546001600160a01b031681565b3360009081526001602081905260409091209081015460ff161561038a576040805162461bcd60e51b81526020600482015260126024820152712cb7ba9030b63932b0b23c903b37ba32b21760711b604482015290519081900360640190fd5b6001600160a01b0382163314156103e8576040805162461bcd60e51b815260206004820152601e60248201527f53656c662d64656c65676174696f6e20697320646973616c6c6f7765642e0000604482015290519081900360640190fd5b6001600160a01b038281166000908152600160208190526040909120015461010090041615610492576001600160a01b03918216600090815260016020819052604090912001546101009004909116903382141561048d576040805162461bcd60e51b815260206004820152601960248201527f466f756e64206c6f6f7020696e2064656c65676174696f6e2e00000000000000604482015290519081900360640190fd5b6103e8565b6001818101805460ff19168217610100600160a81b0319166101006001600160a01b0386169081029190911790915560009081526020829052604090209081015460ff161561050c578154600282810154815481106104ed57fe5b6000918252602090912060016002909202010180549091019055610514565b815481540181555b505050565b6000546001600160a01b031633146105625760405162461bcd60e51b815260040180806020018281038252602881526020018061069f6028913960400191505060405180910390fd5b6001600160a01b0381166000908152600160208190526040909120015460ff16156105d4576040805162461bcd60e51b815260206004820152601860248201527f54686520766f74657220616c726561647920766f7465642e0000000000000000604482015290519081900360640190fd5b6001600160a01b038116600090815260016020526040902054156105f757600080fd5b6001600160a01b0316600090815260016020819052604090912055565b600160208190526000918252604090912080549181015460029091015460ff82169161010090046001600160a01b03169084565b60025490565b60006002828154811061065d57fe5b9060005260206000209060020201600101549050919050565b60006002828154811061068557fe5b906000526020600020906002020160000154905091905056fe4f6e6c79206368616972706572736f6e2063616e206769766520726967687420746f20766f74652ea264697066735822122099779db33c256e265c47a791ab268fbe97a3e44c4cad6ed85d1caafc34dc71ba64736f6c63430006090033",
    "sourcePath": "/Users/igormarques/Documents/IGOR/Projetos/escrutinioonline/escrutinioonline.sol",
    "compiler": {
        "name": "solc",
        "version": "0.6.9+commit.3e3065ac"
    },
    "functionHashes": {
        "chairperson()": "2e4176cf",
        "delegate(address)": "5c19a95c",
        "giveRightToVote(address)": "9e7b8d61",
        "proposalNameByPos(uint256)": "d8fe0d9c",
        "proposalVotesByPos(uint256)": "ba8b1bf3",
        "proposals(uint256)": "013cf08b",
        "totalProposals()": "a78d80fc",
        "vote(uint256)": "0121b93f",
        "voters(address)": "a3ec138d"
    },
    "gasEstimates": {
        "creation": {
            "codeDepositCost": "357600",
            "executionCost": "infinite",
            "totalCost": "infinite"
        },
        "external": {
            "chairperson()": "1082",
            "delegate(address)": "infinite",
            "giveRightToVote(address)": "infinite",
            "proposalNameByPos(uint256)": "2038",
            "proposalVotesByPos(uint256)": "2016",
            "proposals(uint256)": "2810",
            "totalProposals()": "1042",
            "vote(uint256)": "65301",
            "voters(address)": "2901"
        }
    }
}